:030000000217DD07
:0C17DD00787FE4F6D8FD758132021824F4
:1015A4004247324B414A0020202020202020202086
:1015B4002020202020202020202020002020202047
:1015C400496E697469616C697A696E6720202020AC
:1015D40000202020202573202020202020202020CF
:1015E40020002020496E697469616C697A696E67AC
:1015F40020200020202573202020202020202000CF
:10160400202573202020202020205B4750535D207C
:101614000020475249443A202573202020202020CE
:10162400200020257320202020202020202020207E
:1016340020200020475249443A2057616974696E5A
:1016440067204750532020002054454D503A2564CC
:1016540027432048554D493A256425200020202160
:1016640020434F4C44205758205741524E202120AC
:10167400202000202120484947482054454D50202F
:101684005741524E202120002021484541545354B3
:10169400524F4B45205741524E21202000202573A4
:1016A4002020253032642743204720002025732042
:1016B400202530326427432020200025303264273F
:1016C400432026202530326425252048554D4920C5
:1016D400002120434F4C44205758205741524E205C
:1016E400210020256325633A2563256320202025D6
:1016F40073200020256325633A2563256320202079
:101704004E6F2047505320002148494748205445F4
:101714004D50205741524E21004845415453545294
:0A1724004F4B45205741524E210063
:1018D70048008F20210803200000025400AC0000BC
:1018E70000000000000000000000000000000000F1
:1018F700000041006B004100AB00410006004300BF
:101907006FFF15A442006D000002180000021200CC
:1019170000021000004400870000000044008B0014
:10192700000000C18902160019021400324200C0EB
:021937000000AE
:10002600E49000C2F0A3F09000C2E0FEA3E0FFC39C
:100036009464EE64809480501C74072FF5827400DB
:100046003EF583E4F09000C3E004F070DA9000C25D
:10005600E004F080D2759850758920758BFD758DFA
:10006600FDD28ED2ACD2AF121CE77F011218697F87
:1000760002121869121D4B7BFF7A1579AB7D017F41
:1000860001121AF77BFF7A1579C07D017F02121AD9
:10009600F79000C774FFF0A37415F0A374D5F09021
:1000A600006FE0F9A3E0FAA3E09000CAC9F0A3EA62
:1000B600F0A3E9F07B017A007972120F0D7B017AC9
:1000C6000079727D017F03121AF77BFF7A1579ABEF
:1000D6007D017F04121AF77FDC7E05121C929000C8
:1000E6006DE07002A3E070030204C9E49000C2F060
:1000F600A3F09000C2E0FEA3E0FFC39464EE648028
:100106009480502C74072FF58274003EF583E0B47A
:100116002C0E9000C1E004F070069000C0E004F0E0
:100126009000C3E004F070CA9000C2E004F080C200
:100136009000C0E07004A3E0640C600302048490A5
:100146000007E0642460030204840519E5197002BF
:1001560005180513E51370020512900019E0B44165
:100166000890006B7401F08005E490006BF0D3E515
:10017600199410E5186480948E5006200903020233
:1001860061E4F518F5199000C2F0A3F09000C2E002
:10019600FEA3E0FFC39464EE648094805048740725
:1001A6002FF58274003EF583E0B42C0E9000C1E07A
:1001B60004F070069000C0E004F09000C0E0700407
:1001C600A3E0640970109000C3E02401F5119000CB
:1001D600C2E03400F5109000C3E004F070AE900069
:1001E600C2E004F080A6900044E024D0C454F0FF9E
:1001F600A3E024D02F900090F0900042E024D0C4D9
:1002060054F0FFA3E024D02F900091F0900040E03E
:1002160024D0C454F0FFA3E024D02F900092F09095
:10022600000EE024D0C454F0FFA3E024D02F9000A9
:1002360093F0900010E024D0C454F0FFA3E024D043
:100246002F900094F0900012E024D0C454F0FFA345
:10025600E024D02F900095F0121A53D3E513942C76
:10026600E512648094815006200903020484E4F5B3
:1002760012F513C209900020E024D0FDE434FFFCFF
:10028600E4120A997BCD7ACC79CC783D1208DDC090
:1002960004C005C006C00790001DE024D0FFE4346A
:1002A600FFFE7C007D0A120D7FA3E024D0FDEC3416
:1002B600FFCD2FCD3EFCE4120A99D003D002D00127
:1002C600D0001207ECC004C005C006C0079000218C
:1002D600E024D0FDE434FFFCE4120A997B0A7AD7C5
:1002E6007923783C1208DDD003D002D001D0001269
:1002F60007ECE4FBFA797078421209E6C004C005FF
:10030600C006C00790001BE024D0FFE434FFFE7C4B
:10031600007D0A120D7FA3E024D0FDEC34FFCD2F23
:10032600CD3EFCE4120A99D003D002D001D00012CF
:1003360007EC900087120E01900026E0B453179048
:100346000087E0FCA3E0FDA3E0FEA3E0FF120A8322
:10035600900087120E0190002EE024D0FDE434FFB9
:10036600FCE4120A997BCD7ACC79CC783D1208DD73
:10037600C004C005C006C00790002BE024D0FFE4EF
:1003860034FFFE7C007D0A120D7FA3E024D0FDEC35
:1003960034FFCD2FCD3EFCE4120A99D003D002D013
:1003A60001D0001207ECC004C005C006C0079000CB
:1003B6002FE024D0FDE434FFFCE4120A997B0A7A8C
:1003C600D77923783C1208DDD003D002D001D000C3
:1003D6001207ECE4FBFA797078421209E6C004C011
:1003E60005C006C007900029E024D0FFE434FFFED4
:1003F6007C007D0A120D7FAA06AB07900028E02438
:10040600D0FFE434FFFE7D64120D7FEF2BFFEE3A42
:10041600FE90002AE024D0FDEC34FFCD2FCD3EFC2B
:10042600E4120A99D003D002D001D0001207EC9052
:10043600008B120E01900026E0B4571790008BE057
:10044600FCA3E0FDA3E0FEA3E0FF120A8390008B6D
:10045600120E017B017A00790090008BE0FCA3E08C
:10046600FDA3E0FEA3E0FF9000CB120E01900087F3
:10047600E0FCA3E0FDA3E0FEA3E0FF12132BE49053
:1004860000C0F0A3F090006DF0A3F0F510F5119008
:1004960000C2F0A3F09000C2E0FEA3E0FFC39464A4
:1004A600EE64809480501C74072FF58274003EF52C
:1004B60083E4F09000C3E004F070DA9000C2E00438
:1004C600F080D2E49000C2F0A3F09000C3E004F004
:1004D60070069000C2E004F09000C2E0B427EBA3DF
:1004E600E0B40FE690006BE064019000C7706174A1
:1004F600FFF0A37416F0A37404F090006FE0F9A364
:10050600E0FAA3E09000CAC9F0A3EAF0A3E9F07B01
:10051600017A007972120F0D7B017A0079727D01E2
:100526007F01121AF79000C774FFF0A37416F0A3A8
:100536007415F0A37401F0A37400F0A37400F07BAB
:10054600017A007972120F0D7B017A007972803C74
:1005560074FFF0A37416F0A37426F090006FE0F910
:10056600A3E0FAA3E09000CAC9F0A3EAF0A3E9F079
:100576007B017A007972120F0D7B017A0079727D08
:10058600017F01121AF77BFF7A1679377D017F0307
:10059600121AF7121AAE9000AC7420F0A37432F05F
:1005A600A37430F0900090E0FDC4540F2430900006
:1005B600AFF0ED540F2430A3F0900091E0FDC45449
:1005C6000F24309000B1F0ED540F2430A3F09000CA
:1005D60092E0FDC4540F24309000B3F0ED540F2484
:1005E60030A3F0A37420F0900093E0FDC4540F24D0
:1005F600309000B6F0ED540F2430A3F0A3743AF017
:10060600900094E0FDC4540F24309000B9F0ED54EE
:100616000F2430A3F0A3743AF0900095E0FDC45483
:100626000F24309000BCF0ED540F2430A3F07B0172
:100636007A0079AC7D017F02121AF7C2ACC2AF1202
:10064600172EBF011EAE2AAF2B7C007D0A120D911C
:100656008E168F17AE28AF297C007D0A120D918E5B
:10066600148F15D2ACD2AFD3E5179405E516648086
:100676009480504A9000AB7401F09000C774FFF06C
:10068600A37416F0A3744CF0A3E516F0A3E517F0D7
:10069600A3E514F0A3E515F07B017A007972120F39
:1006A6000D7B017A0079727D017F03121AF79000A3
:1006B600C774FFF0A37416F0A374610207BBD3E5F9
:1006C600179405E516648094804021E5179425E586
:1006D60016648094805015E49000ABF09000C774C7
:1006E600FFF0A37416F0A3744C0207BBC3E517947E
:1006F60025E516648094804056D3E5159450E5149C
:100706006480948050499000AB7401F09000C774E7
:10071600FFF0A37416F0A3744CF0A3E516F0A3E55E
:1007260017F0A3E514F0A3E515F07B017A007972C2
:10073600120F0D7B017A0079727D017F03121AF781
:100746009000C774FFF0A37416F0A374778066C395
:10075600E5179425E5166480948050030200E4E5CD
:10076600159450E5146480948050030200E49000D0
:10077600AB7401F09000C774FFF0A37416F0A37475
:100786004CF0A3E516F0A3E517F0A3E514F0A3E5F6
:1007960015F07B017A007972120F0D7B017A0079D0
:1007A600727D017F03121AF79000C774FFF0A374DD
:1007B60016F0A3748CF0A3E516F0A3E517F0A3E5F5
:1007C60014F0A3E515F07B017A007972120F0D7B08
:0F07D600017A0079727D017F04121AF70200E4A4
:101A5300E4FD7F8E121BBB7D807F80121BBB900039
:101A630090E0FD7F8C121BBB900091E0FD7F8812FC
:101A73001BBB900092E0FD7F86121BBB900093E09E
:101A8300FD7F84121BBB900094E0FD7F82121BBB81
:101A9300900095E0FD7F80121BBB900096E0FD7FD8
:0B1AA3008A121BBB7D807F8E021BBBE4
:101AAE007F8C121B7C900090EFF07F88121B7C9035
:101ABE000091EFF07F86121B7C900092EFF07F84F6
:101ACE00121B7C900093EFF07F82121B7C9000948F
:101ADE00EFF07F80121B7CEF547F900095F07F8A91
:091AEE00121B7C900096EFF0221F
:03002300021B3B82
:101B3B00C0E0C083C082C0D075D008309823C29853
:101B4B0090006DE0FEA3E02407F58274003EF58360
:101B5B00E599F090006EE004F0700690006DE004E3
:101B6B00F0309904C299C20AD0D0D082D083D0E091
:011B7B003237
:091D4200200AFDEFD20AF59922F6
:101C2C009000F4EBF0A3EAF0A3E9F09000F4E0FBF1
:101C3C00A3E0FAA3E0F9120D0560179000F4A3E4F9
:101C4C0075F001120DDDA9F0FA120D05FF121D42FF
:031C5C0080D9220A
:0F132B009000C4EBF0A3EAF0A3E9F0A3120E01C7
:10133A00E4FFFE7D347C439000CBE0F8A3E0F9A300
:10134A00E0FAA3E0FB1207EC9000D9120E01E4FBCD
:10135A00FA79A078419000D9E0FCA3E0FDA3E0FE71
:10136A00A3E0FF1209E6120AD29000CFEEF0A3EF33
:10137A00F09000D9E0FCA3E0FDA3E0FEA3E0FFC0EB
:10138A0004C005C006C0079000CFE0FCA3E0FDEC56
:10139A00120A99E4FBFA79A078411208DDA804A997
:1013AA0005AA06AB07D007D006D005D0041207E875
:1013BA009000D9120E01E4FBFAF978409000D9E0C6
:1013CA00FCA3E0FDA3E0FEA3E0FF1209E6120AD2A5
:1013DA009000D1EEF0A3EFF09000D9E0FCA3E0FD7D
:1013EA00A3E0FEA3E0FFC004C005C006C00790004A
:1013FA00D1E0FCA3E0FDEC120A99E4FBFAF978408B
:10140A001208DDA804A905AA06AB07D007D006D0A2
:10141A0005D0041207E89000D9120E01E4FFFE7D00
:10142A00407C419000D9E0F8A3E0F9A3E0FAA3E0F8
:10143A00FB1208DD120AD29000D3EEF0A3EFF0E41B
:10144A00FFFE7DB47C429000C7E0F8A3E0F9A3E078
:10145A00FAA3E0FB1207EC9000D9120E01E4FBFAA2
:10146A00792078419000D9E0FCA3E0FDA3E0FEA337
:10147A00E0FF1209E6120AD29000D5EEF0A3EFF0CF
:10148A009000D9E0FCA3E0FDA3E0FEA3E0FFC004C6
:10149A00C005C006C0079000D5E0FCA3E0FDEC1231
:1014AA000A99E4FBFA792078411208DDA804A90513
:1014BA00AA06AB07D007D006D005D0041207E890D9
:1014CA0000D9120E019000D9E0FCA3E0FDA3E0FED2
:1014DA00A3E0FF120AD29000D7EEF0A3EFF0A3E048
:1014EA00FCA3E0FDA3E0FEA3E0FFC004C005C00624
:1014FA00C0079000D7E0FCA3E0FDEC120A99A8040B
:10150A00A905AA06AB07D007D006D005D004120752
:10151A00E89000D9120E01E4FFFE7DC07C419000E4
:10152A00D9E0F8A3E0F9A3E0FAA3E0FB1208DD1280
:10153A000AD29000CFA3E02441FD9000C4E0FBA3AF
:10154A00E0FAA3E0F9ED120D4B9000D5A3E0244197
:10155A00FD9000C4E0FBA3E0FAA3E0F9900001EDDE
:10156A00120D5D9000D1A3E02430900002120D5DAF
:10157A009000D7A3E02430900003120D5D9000D3B1
:10158A00A3E02441900004120D5DEF244190000570
:0A159A00120D5D900006E4020D5DE5
:071D0C007F30121BF67F0A75
:0F1D13007D9B7C03ED1D70011C144C70F7DFF1FC
:011D2200229E
:101D2300E4FFFE30870B0FBF00010EBE13F5BF8823
:011D3300F2BD
:011D3400228C
:101BF600C296C2958F800000000000000000000021
:101C060000000000000000000000D2960000000066
:101C160000000000000000000000000000000000BE
:061C2600C2967580FF224A
:1019F700AD07C296C2A1D2957580FF000000000016
:101A0700000000000000000000000000000000D2FD
:101A170096121D23C296C295AF058F800000000065
:101A270000000000000000000000000000000000AF
:101A3700D296000000000000000000000000000037
:0C1A4700000000000000C2967580FF2225
:10199900AD07C296C2A1D2957580FF000000000074
:1019A900000000000000000000000000000000D25C
:1019B90096121D23C296C295D2A1AF058F80000051
:1019C900000000000000000000000000000000000E
:1019D9000000D29600000000000000000000000096
:0E19E9000000000000000000C2967580FF2282
:101CE700C296C2A1C2957F64121D13121D0C121D4C
:101CF7000C7F38121BF67F06121D137F011219F78E
:051D07007F0C0219F73A
:10000300AC05AB07EBB40108EC144480FF1219F7FD
:0E001300EBB40209EC243F4480FF1219F722DF
:02186900A907CD
:10186B00E96068D3648094845061E9FF3395E0FEAE
:10187B00E9B403127E007F019000C5E02414F090C0
:10188B0000C4E03400F0E9B404127E007F02900043
:10189B00C5E02414F09000C4E03400F07D01120088
:1018AB0003E964016004E9B4020CE4FA7F20121925
:1018BB00990AEAB414F6E964036004E9B4030C7AF8
:0B18CB00147F201219990AEAB428F6D5
:0118D60022EF
:101C5F00AA03EF602DD3648094845026ED6023D3C4
:101C6F0064809494501CEFB403067F0174142DFD0F
:101C7F00EFB404067F0274142DFD120003AF02129D
:031C8F001999227E
:101AF7009000C4EFF0A3EDF0A3EBF0A3EAF0A3E9A5
:101B0700F09000C6E0FBA3E0FAA3E0F9120D05FB95
:101B170060219000C4E0FFA3E0FD121C5FE004F029
:101B2700D364809494500C9000C7E475F001120DB3
:041B3700C780CE2273
:051D4B00C2B5C2B42284
:101BBB00D2B5EF54FEFFE4FEEF30E004D2B6800264
:101BCB00C2B6D2B4C2B4EFC313FF0EEEB408E9E44D
:101BDB00FEED30E004D2B68002C2B6D2B4C2B4ED90
:0A1BEB00C313FD0EEEB408E9C2B505
:011BF50022CD
:101B7C00D2B5EF4401FFE4FDEF30E004D2B68002B1
:101B8C00C2B6D2B4C2B4EFC313FF0DEDB408E9E48E
:101B9C00FDEEC313FE30B6054480FE8004EE547F88
:0E1BAC00FED2B4C2B40DEDB408E7C2B5AF0668
:011BBA002208
:101C92008E2F8F30D3E5309400E52F9400401E75CF
:101CA200310075327CE532153270021531E532456C
:0D1CB2003170F2E530153070DB152F80D752
:011CBF002202
:0C1D3500153215321532153215321532F8
:011D4100227F
:10193A00E4F530752701753108E53025E0F530E426
:10194A00F52F20A00AAF2F052FEFC3941440F3E51B
:10195A002FC3941440028026121D35121D35121D04
:10196A003530A01F053030A00EAF2F052FEFC394DE
:10197A00145004D2A080EFE52FC394144005E4F577
:0E198A0027FF221531E531D3940050ADAF3068
:01199800222C
:10172E00E4F52CF52DF52EC2AFC2A07F14FE121CCF
:10173E0092D2A0121D35121D35121D35121D3530D7
:10174E00A0030217D820A00AAF2E052EEFC39414C3
:10175E0040F3E52EC3941440028019E4F52ED2A076
:10176E0030A00AAF2E052EEFC3941440F3E52EC31E
:10177E0094144004D2A08052E4F52C12193A74222B
:10178E00252CF8A607E5277006D2A0D2AFFF22E5DA
:10179E002C6404600A7422252CF8E6252DF52D05FF
:1017AE002CE52CC3940540D3E52DB5261DE52275F9
:1017BE00F00AA485F028F529E52475F00AA485F031
:0E17CE002AF52BD2A0D2AF7F0122D2AF7F002E
:0117DC0022EA
:1007E500020B3EE86480F8E933E83360110460F0F9
:1007F500ED33EC337009E8FCE9FDEAFEEBFF22047A
:1008050060DED3EB9FEA9EE99DE8C2E78CF0C2F774
:1008150095F0400CE8CCF8E9CDF9EACEFAEBCFFB40
:10082500120B0985D0F05804700320D5B3E8047085
:10083500075002B2D5020B4892D5EC0460F7E4CC20
:10084500C0E0C398F8603B94186008400DD0E0FB09
:10085500020B20E4FBFAC9FC8028E830E406E4C971
:10086500FBE4CAFCE830E305E4C9CACBFCE854075D
:100875006010F8C3E913F9EA13FAEB13FBEC13FC68
:10088500D8F130F52FC3E49CFCEF9BFFEE9AFEED0B
:1008950099FDD0E0FBEF4E4D4C701222DB03020BAD
:1008A50045EC2CFCEF33FFEE33FEED33FDED30E789
:1008B500EB020B20EF2BFFEE3AFEED39FDD0E0FB0E
:1008C50050130BBB0003020B48ED13FDEE13FEEFB7
:0808D50013FFEC13FC020B20E1
:1008DD00EC4D6011E8497017ED33EC3304600DE415
:1008ED00FCFFFEFD22E933E8330470F8020B3E12E3
:1008FD000B0958046009E4CC2481500628500902E4
:10090D000B48284003020B45C0E0EB4A7044B98008
:10091D0006D0E0FB020B34EF4E701CBD8008EBFFE0
:10092D00EAFEE9FD80EBE98DF0A4FEE5F00209C6D3
:10093D00E9CDF9EAFEEBFFEF89F0A4FCE5F0CE89F5
:10094D00F0A42EFFE435F0CD89F0A42DFEE435F0B2
:10095D008067EF4E7005BD80D780C3EF8BF0A4ACE0
:10096D00F0EE8BF0A42CFCE435F0F8EF8AF0A42C1B
:10097D00E5F038FCE433CB8DF0A42CFCE5F03BF82E
:10098D00EE8AF0A42CFCE5F038F8E433CF89F0A41E
:10099D002CFCE5F038CF3400CE89F0A42FFFE5F024
:1009AD003EFEE433C98DF0A42EFEE5F039CD8AF07C
:1009BD00A42FFFE5F03EFEE43DFD33D0E0FB5007F4
:1009CD000BBB000F020B48EC2CFCEF33FFEE33FE9C
:0609DD00ED33FD020B20CA
:1009E300020B48EC5D046005E859047003020B3EFA
:1009F300120B09580460F6EC4860F2EC7004FDFE3B
:100A0300FF22C860DB2481C85009C39860025006E6
:100A1300020B459850CAF582E9294B4A7005AB820F
:100A2300020B3475F0007C1A7880C3EF9BEE9AEDCD
:100A330099400DC3EF9BFFEE9AFEED99FDE842F05E
:100A4300DC23ACF0D0E0FFD0E0FED0E0FDAB8220B1
:100A5300E7101BEB60BAEC2CFCEF33FFEE33FEED3B
:100A630033FD020B20E803F830E705C0F075F00012
:100A7300EF2FFFEE33FEED33FD40B830E7C280AA1F
:100A8300ED33EC33600A047003BD8004ECB2E7FC81
:010A93002240
:100A940075F020800E75F010800575F0087D007EDD
:100AA400007F003392D530D503120DF3EC334010A0
:100AB400EF33FFEE33FEED33FDEC33FCD5F0ED22E6
:0E0AC400E5F0247EA2D513CC92E7CDCEFF2222
:100AD200EDD2E7CD33EC3392D524814006E4FFFE1C
:100AE200FDFC22FCE4CFCECDCC24E0501174FF807B
:100AF200EDC3CC13CCCD13CDCE13CECF13CF047018
:070B0200F030D5DE020DF317
:100EA800E52C24C7F582E43400F583E0052C229074
:100EB80000C43007039000C7E475F001120E0D025C
:100EC8000D052000E97F2ED2008018EF540F2490E2
:100ED800D43440D4FF30040BEF24BFB41A005003BD
:100EE8002461FFE52D6002152D0530E530700205FF
:100EF8002F30070E9000C4E475F001120E0DEF02BA
:100F08000D4B021CC07403D2078003E4C207F52C02
:100F18009000C4120E24E4F52DF52FF530E52D6070
:100F2800077F20120EEB80F5752EFFC201C200C2AA
:100F380002C203C205C206C208120EB7FF700D3006
:100F480007057F00120EFCAF30AE2F22B4255FC21A
:100F5800D5C204120EB7FF24D0B40A00501A75F097
:100F68000A782D30D50508B6FF0106C6A426F62056
:100F7800D5047002D20380D924CFB41A00EF5004EC
:100F8800C2E5D2040211EED20180C6D20080C0D2DE
:100F98000280BCD2D580BAD20580B47F20120EEB75
:100FA8002002077401B52D0040F1120EA8FF120EA1
:100FB800EB020F25D208D2068095120EA8FB120E5E
:100FC800A8FA120EA8F94A4B700679EC7A127BFF40
:100FD80020022EE52D602A7E008E82758300120D78
:100FE8001E60060EEE652E70F0C2D5EBC0E0EAC0BA
:100FF800E0E9C0E0EE12124FD0E0F9D0E0FAD0E01C
:10100800FB120D05FF60AAEBC0E0EAC0E0E9C0E012
:10101800120EEBD0E02401F9D0E03400FAD0E0FB66
:10102800E52E0460DCD52ED98087D20280A2121268
:101038003160F7E52E700104120B53A92E600DE5FF
:101048002E600914F52E1212D9EF60F3EA30E70288
:10105800F404C3995079EAF4252E0430E701E40436
:10106800F52E800D12123160C1EA052E252E120BC5
:1010780053EA9000F3F030E701E4252E04D52E045E
:101088002005011412124FE4C0E01212D99000F3A7
:10109800E0601320E70714F0120ED3802204F0D08A
:1010A800E014C0E07F00120ED3E52E6007120ECACE
:1010B800152E800B300503120ECAD0E0020F25D082
:1010C800E00480C4121231609EE52E04120B539086
:1010D80000F3EAF0E52E2005026001042404121250
:0110E8004FB8
:1010E90074FF04C0E01212D9120ED3E52E200502B6
:1010F9006003120ECAD0E0B52EE87F45120EDD90CE
:1011090000F3E07F2B30E7047F2DF404C0E0120EDA
:10111900EBD0E075F00A84C0F0120ED4D0E0120EC4
:10112900D4020F25791080027908C206C208800806
:10113900D2D5790A8004790AC2D5E52E047002F560
:101149002EE4FAFDFEFF120EA8FC7B082001131203
:101159000EA8FD7B1030000A120EA8FE120EA8FF81
:101169007B20EC3382D592D55013C3E43000069F1F
:10117900FFE49EFEE42001039DFDE49CFCE4CBF822
:10118900C201EC700CCFCECDCCE824F8F870F38016
:1011990017C3EF33FFEE33FEED33FDEC33FCEB33D6
:1011A900FB994002FB0FD8E9EB300105F8D0E0C408
:1011B90048B201C0E00AEC4D4E4F78207B0070C266
:1011C900EAB52E0040BCC0E0121251D0F0D0E020A8
:1011D9000104C4C0E0C4B201C0F0120ED4D0F0D5ED
:1011E900F0EB020F25120E2D0FC253112D580F933C
:1011F9004C0F8F4211314F1139441139490FA8430E
:10120900113F55106C4610CC45103647130C500F42
:10121900972D0F9B2E0FBE2B0F9F230FBC2012F56E
:101229002A0F574800000FB6E52EB4FF03752E06A6
:10123900120EA8FC120EA8FD120EA8FE120EA8FF8F
:101249009000EC020B90790AA2D52003143005090D
:10125900B910020404B9080104A2D52006025001FC
:10126900042002689202B52D005034C0E07F20307E
:1012790003197F30A20272067205500F1212A8C21A
:1012890002C206C205C2087F30800F300503E9C0DB
:10129900E0120EEB300503D0E0F9D0E0B52DCC30EB
:1012A90005177F30B9100C120EEB7F583004077FF9
:1012B900788003B90803120EEB3002057F2D020E68
:1012C900EB7F202008F87F2B2006F322920280CFA3
:1012D9007F00B40700500B24ECF582E43400F58359
:1012E900E0FF22286E756C6C2900D201120EA8301D
:1012F90001F8C201782D30D50108F6020F572D509B
:10130900434958120EA82403B405004001E4901380
:101319000793120EDC743A120EDCD203752D040207
:02132900112D84
:100B0900E9D2E7C933E833F892D5EDD2E7CD33EC32
:070B190033FC5002B2D522AB
:100B2000EC30E7100FBF000C0EBE00080DBD000436
:100B30000BEB6014A2D5EB13FCED92E7FD2274FFE2
:100B4000FCFDFEFF22E480F8A2D574FF13FC7D803B
:030B5000E480EF4F
:100B5300F920E73624F950037907E4F42402FBE58E
:100B630082158270021583DBF6E024FB501BE960DB
:100B730014E4F0E582158270021583E004F0B40AF0
:0D0B830008E4F0D9EE7401F00A22C2D52278
:100B9000ED33EC3392D5FA602AB4FF33EDC2E77B34
:100BA000FF60067A0B79B5E4227A0B79BE20D50472
:100BB0007A0B79B9224E614E002B494E46002D49E1
:100BC0004E4600E47A08F0A3DAFC7B00740722C0EA
:100BD00083C082ECC0E0EDC0E0EEC0E0EFC0E0EA30
:100BE00075F010A4CAABF075F04DA42BFBE435F002
:100BF000FCEA2410FAEB34C5FBEC34D9FCEDC2E777
:100C0000FF75F056A4F42411C5F0F434C58FF0A498
:100C10002AE5F03BE43CF020E714120CC5D0E0FFDD
:100C2000D0E0FED0E0FDD0E0FC1209E68014F40430
:100C3000120CC5D0E0FFD0E0FED0E0FDD0E0FC1209
:100C400008DDD082D083E0FAEDD2E7CD33EC332457
:100C500082FBE4C3CF33CFCE33CECD33CD33DBF302
:100C60007B0775F00A846004F0A31B0AE5F0F0A38B
:100C70008FF0740AA4FFACF08EF0740AA42CFEACC2
:100C8000F050010C8DF0740AA42CFDE435F0F0A3B3
:050C9000DBDE74072209
:100C95003F8000004120000042C80000447A000067
:100CA500461C400047C35000497424004B189680E9
:100CB5004CBEBC205A0E1BCA6753C21C749DC5AEE0
:100CC500FB60065407601C2323120CF3EB543860B9
:100CD50009120CDF120CEE1208DDECF8EDF9EEFA54
:100CE500EFCB22EB120CEE80F1543803241C900C50
:100CF50095FE93FC0EEE93FD0EEE930ECE93FF2222
:1017E900020026E493A3F8E493A34003F68001F2F0
:1017F90008DFF48029E493A3F85407240CC8C33301
:10180900C4540F4420C8834004F456800146F6DFCF
:10181900E4800B01020408102040809018D7E47E70
:10182900019360BCA3FF543F30E509541FFEE493C4
:10183900A360010ECF54C025E060A840B8E493A38B
:10184900FAE493A3F8E493A3C8C582C8CAC583CAB6
:10185900F0A3C8C582C8CAC583CADFE9DEE780BE6E
:0119390000AD
:100D0500BB010689828A83E0225002E722BBFE02EC
:090D1500E32289828A83E493221F
:100D1E00BB010CE58229F582E5833AF583E022508A
:100D2E0006E92582F8E622BBFE06E92582F8E222D4
:0D0D3E00E58229F582E5833AF583E49322EE
:100D4B00BB010689828A83F0225002F722BBFE0187
:020D5B00F32281
:100D5D00F8BB010DE58229F582E5833AF583E8F0CC
:100D6D00225006E92582C8F622BBFE05E92582C878
:020D7D00F22260
:100D7F00EF8DF0A4A8F0CF8CF0A428CE8DF0A42E88
:020D8F00FE2242
:100D9100C2D5EC30E709B2D5E4C39DFDE49CFCEE7D
:100DA10030E715B2D5E4C39FFFE49EFE120E53C394
:100DB100E49DFDE49CFC8003120E5330D507C3E48F
:060DC1009FFFE49EFE22EC
:100DC700C5F0F8A3E028F0C5F0F8E58215827002B7
:060DD7001583E038F02254
:100DDD00A3F8E0C5F025F0F0E582158270021583C9
:060DED00E0C838F0E82226
:0E0DF300C3E49FFFE49EFEE49DFDE49CFC2211
:0C0E0100ECF0A3EDF0A3EEF0A3EFF02264
:100E0D00F8E0FBA3A3E0F925F0F0E582158270026E
:070E1D001583E0FA38F02212
:090E2400EBF0A3EAF0A3E9F022CF
:100E2D00D083D082F8E4937012740193700DA3A354
:100E3D0093F8740193F5828883E473740293686068
:060E4D00EFA3A3A380DF68
:101CC000EFB40A07740D121CCB740A309811A8994E
:101CD000B8130CC2983098FDA899C298B811F63084
:071CE00099FDC299F599225C
:100E5300BC000BBE0029EF8DF084FFADF022E4CC83
:100E6300F875F008EF2FFFEE33FEEC33FCEE9DEC4C
:100E7300984005FCEE9DFE0FD5F0E9E4CEFD22ED92
:100E8300F8F5F0EE8420D21CFEADF075F008EF2FDC
:100E9300FFED33FD4007985006D5F0F222C398FDCD
:050EA3000FD5F0EA226A
:00000001FF
